:1000000000800020C1580000ED580000ED580000AD
:10001000ED580000ED580000ED580000ED580000CC
:10002000ED580000ED580000ED580000ED580000BC
:10003000ED580000ED580000ED580000ED580000AC
:1000400065310000ED580000ED580000ED5800004B
:10005000ED580000ED580000ED580000ED5800008C
:10006000ED580000ED580000ED580000A519000003
:10007000ED580000ED580000ED580000ED5800006C
:10008000ED58000011520000ED580000ED5800003E
:10009000ED580000ED580000ED580000ED5800004C
:1000A0004D1B0000ED5800009D090000ED580000B8
:1000B000ED580000ED580000ED580000ED5800002C
:1000C000ED580000ED580000ED580000ED5800001C
:1000D000ED580000ED580000ED580000ED5800000C
:1000E00010B5054C237833B9044B13B10448AFF372
:1000F00000800123237010BD0001002000000000DB
:10010000D46E000008B5064B1BB106480649AFF394
:1001100000800648036813B1054B03B1984708BD3A
:1001200000000000D46E00000401002074000020D4
:1001300000000000154B002B08BF134B9D46A3F594
:10014000803A00218B460F461348144A121A06F0D3
:1001500025FC0F4B002B00D098470E4B002B00D0F6
:1001600098470020002104000D000D48002802D00F
:100170000C48AFF3008006F0E3FB2000290000F0FC
:10018000A7FD06F0C9FB00BF0000080000800020AA
:10019000000000000000000000010020880B00208B
:1001A000000000000000000080B483B000AF0346F0
:1001B000FB71084B97F907205209F97901F01F01EB
:1001C000012000FA01F143F822100C37BD465DF81A
:1001D000047B704700E100E080B483B000AF0346C9
:1001E0003960FB71FB79002B0DD0FB79012B0AD014
:1001F000FB79022B07D0FB79032B04D0FB79042B6E
:1002000001D0FB79052B0948FA793B68012101FAF5
:1002100003F319461346DB0013449B0003441033D9
:1002200059600C37BD465DF8047B704700600040A4
:1002300080B483B000AF03463960FB71FB79002BBB
:100240000DD0FB79012B0AD0FB79022B07D0FB796B
:10025000032B04D0FB79042B01D0FB79052B094833
:10026000FA793B68012101FA03F319461346DB00D2
:1002700013449B000344103319600C37BD465DF8EE
:10028000047B70470060004080B582B000AF0C4B2B
:100290001B687B603B46184604F0CAFC7B681B0E5B
:1002A0000F2B0AD93B78032B07D1064B054A12685E
:1002B00022F0500242F010021A600837BD4680BD9D
:1002C000FC81E00FC0800C4080B400AF72B6084BD8
:1002D0001B68B3F1FF3F04D0054B1B685A1C044B4D
:1002E0001A60034B1B681846BD465DF8047B7047D7
:1002F0003801002080B483B000AF0C4B1B68002B8A
:100300000DD00A4B1B685A1E084B1A60074B1B681E
:100310007B607B68002B00D162B67B6800E0002325
:1003200018460C37BD465DF8047B70473801002045
:1003300080B400AF054B054A126922F004021A612D
:1003400030BFBD465DF8047B704700BF00ED00E0A4
:1003500080B483B000AF78600B46FB70FA787B689E
:100360005A600C37BD465DF8047B704780B500AF1E
:1003700002200021002202F0AFFD0E48012102F010
:100380002BFA0D48012102F027FA0120002100225A
:1003900002F0A2FD05200021002202F09DFD0020B8
:1003A0000121012202F098FD0448022102F01AFC0A
:1003B00080BD00BF0043020040810400020018001D
:1003C00080B582B000AF7860FFF77EFF064B7A6899
:1003D00053F82230591C044B7A6843F82210FFF777
:1003E00089FF0837BD4680BD2C0B002080B582B048
:1003F00000AF7860FFF768FF064B7A6853F8223049
:10040000591E044B7A6843F82210FFF773FF083730
:10041000BD4680BD2C0B002080B500AF0D4B1B6886
:10042000002B15D10B4B5B68002B02D0FFF780FF30
:100430000EE0084B9B68002B03D0012003F0D8F896
:1004400006E0044BDB68002B02D0012003F01EF90C
:1004500080BD00BF2C0B002080B58CB000AF52488F
:10046000012102F0B9F901233B7000237B700023C6
:10047000BB700023FB7000233B7100237B710023C2
:10048000BB710023FB7100233B7200237B720023AE
:10049000BB7200233B7001233B710023BB723B46C0
:1004A0004248194604F09AFA0023FB624FF4C03325
:1004B0007B6202E0FB6A0133FB620122FB6A02FA03
:1004C00003F37A6A92FBF3F3B3F5803FF2DA384B29
:1004D000374A916EFA6A12020A439A660122FB6A4F
:1004E00002FA03F33B62334A3B6A92FBF3F3FB618C
:1004F0002E4BFA69DA60FB692C4800211A4604F099
:100500002BFA0023BB624FF4C033BB6102E0BB6A2D
:100510000133BB620122BB6A02FA03F3BA6992FBA0
:10052000F3F3B3F5803FF2DA214B214A916EBA6AB8
:1005300012020A439A660122BB6A02FA03F37B6144
:10054000786905F00BFC02460B4615A1D1E90001C4
:1005500005F094FD02460B461046194605F076FE5E
:1005600003463B613B69114801211A4604F0F4F946
:100570000E4B1B6AFB600D4BFA689A620B4B06220E
:10058000DA620220FFF71CFF1A20FFF70DFE074872
:10059000012104F00DFA3037BD4680BDAFF3008075
:1005A000FCA9F1D24D626040602612000020084094
:1005B00000800C40FD7F010080B500AF064801219E
:1005C00002F00AF904200321FFF732FE024800215D
:1005D00002F002F980BD00BF00D2040080B500AF78
:1005E0000648012102F0F8F804200321FFF7F4FD8A
:1005F0000248002102F0F0F880BD00BF00D20400E4
:1006000080B58AB002AF2348012102F0E5F803204B
:10061000FFF7D6FE00233B761F4BFB6107F1180363
:10062000184602F0ABFE1D4B1D4A1A601B4B002200
:100630005A6001233B7301237B734FF400233B611A
:10064000164B7B6107F10C030020194602F016FEE1
:1006500001233B7103237B710123BB710023FB71D9
:1006600000233B723B1D002001211A4602F04EFE82
:100670000C4B009340F2F313019300200121002260
:10068000094B02F0DBFD0320FFF7B0FE2037BD462B
:1006900080BD00BF00030200000500200C04002004
:1006A0003D070000242000401C07002080B586B0D4
:1006B00000AF2048012102F08FF80120FFF780FEF3
:1006C00000233B7400237B740023BB741F23FB7443
:1006D00000233B7500237B750C233B750D23FB74B6
:1006E00007F110031448194601F00AFC00233B717E
:1006F00000237B710023BB710023FB7100233B723D
:1007000000237B720023BB720023FB7200233B7328
:1007100008233B7201237B7101233B733B1D064879
:10072000194601F031FC04480121FFF711FE18378A
:10073000BD4680BD000205000020004080B588B0A5
:1007400000AFF8600B467A60FB720023FB61002368
:10075000BB610AE02B4BBA6933F812309BB2FA69DD
:100760001344FB61BB690133BB61BB69B3F5FA7F1D
:10077000F0D3FA69244BA3FB02135B09FB61FB690D
:10078000184600F069F80246204B1A60204B1F4AB9
:100790001A6000237B610EE01D4B1B681A781D490F
:1007A0007B690B441A701A4B1B685A1C184B1A6051
:1007B0007B6901337B617B69032BEDDD144B1B6887
:1007C0001A1F134B1A6000F063F9134B124A526858
:1007D00042F002025A60104801F054FC0F48002118
:1007E00001F0FAFF02F0F4FD0D48002101F0F4FFE2
:1007F0000120FFF7FBFD0B48012101F0EDFF203741
:10080000BD4680BD1C070020D34D6210200400208F
:100810000C0B0020040B002000200040000205000B
:100820000003020000D2040080B500AF002004F0F5
:10083000C5FE04F005FE064B1B68184606F022F8BC
:100840000346184604F016FF024804F0CDFF80BDB1
:1008500020040020D46A000080B586B000AF786024
:10086000164B1B6803F47F031B0C184605F0ECFDC8
:1008700003467B61114BDB681B0D184605F0E4FD58
:1008800003463B610E4BFB60786805F0E1FD0346D3
:100890003869194605F026FD03461846F96805F043
:1008A000DFFE03467869194605F01CFD0346BB6070
:1008B000BB6818461837BD4680BD00BFB081E00F49
:1008C000D7A3C8C0B0B586B000AF0320FFF778FD4E
:1008D000154B3C461D460FCD0FC495E8030084E838
:1008E000030000233B7000237B6002233B61012354
:1008F0003B753B460D48194601F022FA0B480A2188
:10090000062201F0F7F900BF084B9B6803F00103D2
:10091000002BF9D0054B054A526842F480325A60E8
:100920001837BD46B0BD00BFE06A000000100040AF
:10093000B0B586B000AF0320FFF742FD154B3C4633
:100940001D460FCD0FC495E8030084E80300002383
:100950003B7000237B603C233B6101233B753B469E
:100960000D48194601F0ECF90B480A21062201F066
:10097000C1F900BF084B9B6803F00103002BF9D0BD
:10098000054B054A526842F480325A601837BD461A
:10099000B0BD00BFE06A00000010004080B584B028
:1009A00002AF344B1B6A7B60324B7A689A627B6879
:1009B00003F00203002B02D000F0BAF854E07B6889
:1009C00003F00403002B4FD0FFF77CFF2A4B9B68FA
:1009D0001A462A4B1A60284801F070F9FFF7A8FF61
:1009E000254B9B681A46264B1A60234801F066F98E
:1009F00000F0BEF8214B1B68032B09D1204B1B686C
:100A0000032B05D1FFF7EAFD0320FFF7EFFC0CE015
:100A10001A4B1B68012B08D1194B1B68012B04D101
:100A2000FFF7CAFD0320FFF7E1FCFFF73FFEFFF7EA
:100A3000E7FD144B009340F2F313019300200121D2
:100A40000022114B02F0FAFB10480121FFF780FC55
:100A500000F006FB00F09AFC00F0CCFC00F0A8FDD2
:100A600000F0E4FD00F0ACFC00F05CF80837BD4697
:100A700080BD00BF0020084000100040280B00206F
:100A800004040020242000401C0700200020004017
:100A900080B582B000AF0023FB7110E01E4B1A68D6
:100AA0001E4B1B681B781046194600F09DF91B4B26
:100AB0001B685A1C194B1A60FB790133FB71FB79D7
:100AC000032BEBD90023FB7100F0F2FD00F090FF47
:100AD00000F0F6FF1248012104F04EF8104B104AC6
:100AE000526842F004025A6000BF0D4B5B6C03F089
:100AF0000203002BF9D00A4B094A526D42F0020260
:100B00005A65074B02229A630548002104F034F825
:100B10000837BD4680BD00BF2C0400200C0B002010
:100B20000040084080B500AF04F034FD80BD00BF38
:100B300080B500AF0C48012101F04EFE0B480121A9
:100B400001F04AFE032006210422002302F0F2FEF7
:100B5000022006210022002302F0ECFE03200621E1
:100B6000FFF766FB80BD00BF0092040000D20400C6
:100B700080B500AF03200621FFF72EFB034801F0EC
:100B80009DF80348002101F027FE80BD00100040C1
:100B90000092040080B582B000AF0346FB80FB8862
:100BA00003F48073002B22D0464B1B78002B08D116
:100BB00000F00AFF434B1B780133DAB2414B1A7045
:100BC00015E0404B1B78012B08D100F081FD3D4B17
:100BD0001B780133DAB23B4B1A7008E0394B1B78B3
:100BE000022B04D1FFF720FE364B00221A70FB883F
:100BF00003F40063002B61D004F042F90346FB804C
:100C0000FB8803F48063002B43D004F039F90346DA
:100C1000FB80FB8803F48073002B27D004F030F9AD
:100C20000346FB80FB8803F40073002B0BD00020ED
:100C300004F0C4FC04F004FC234804F0D5FD234B6D
:100C400001221A7011E0FB88002B05D0FB8803F409
:100C50008073002B00D108E01C4B1B78002B00D0C8
:100C600003E0012002F0C4FCD8E708E0FB88002B79
:100C700005D0FB8803F48063002B00D108E0134B00
:100C80001B78002B00D003E0012002F0B1FCBCE790
:100C900008E0FB88002B05D0FB8803F40063002BE1
:100CA00000D10BE0094B1B78002B03D0074B00222F
:100CB0001A7003E0012002F09BFC9DE70837BD4657
:100CC00080BD00BF1F010020F86A00001E01002047
:100CD000B0B590B000AF1F4B1F4A1A601D4B1B6888
:100CE0001846142100F03EF81A4B1B6818460121E3
:100CF00000F07AF8174B1B68184600F0ADF8FFF7C4
:100D0000C3FA0320FFF75CFBFFF730FBFFF7A4FB00
:100D100000F09CFE114B3C461D460FCD0FC40FCD7D
:100D20000FC40FCD0FC495E80F0084E80F003B46B9
:100D3000184604F037F804F0A3F803469AB2084BBB
:100D40001A80074B1B881846FFF724FFFFF764FB48
:100D5000F1E700BF2C040020100B0020006B000006
:100D60001C01002080B582B000AF786039603B681C
:100D7000DB00184605F00AFE02461A4B1A607B6833
:100D80003A685A61174B1A687B681A607B681A6860
:100D90007B685B6903F10053013B9B011A447B684C
:100DA0005A607B685B687A6812685A607B680022C8
:100DB0001A617B681A687B689A607B681B68A3F17C
:100DC00040027B68DA607B68DB687A6892685A6008
:100DD0007B689B687A68926840325A600837BD46E3
:100DE00080BD00BF7C0B002080B485B000AF786070
:100DF0000B46FB707B681A697B685B699A4219D065
:100E00007B68DB685B68FB60FB68FA781A707B685C
:100E10005A68FB689A4204D0FB6803F14002FB6801
:100E20005A607B68FA68DA607B681B695A1C7B68C9
:100E30001A610CE07B689B68FB60FB68FA781A70AB
:100E40007B68FA68DA60FB685A687B689A601437D6
:100E5000BD465DF8047B704780B584B000AF786014
:100E60007B681B69002B0CD07B689B68FB60FB6870
:100E70005A687B689A607B681B695A1E7B681A6196
:100E800002E0012005F048FDFB681B78184610378A
:100E9000BD4680BD80B483B000AF0346FB71084BF4
:100EA00097F907205209F97901F01F01012000FA92
:100EB00001F143F822100C37BD465DF8047B704702
:100EC00000E100E080B483B000AF0346FB71094B42
:100ED00097F907205209F97901F01F01012000FA62
:100EE00001F1603243F822100C37BD465DF8047BF7
:100EF000704700BF00E100E080B483B000AF7860CD
:100F0000064B064AD2F810117A68D2430A40C3F859
:100F100010210C37BD465DF8047B7047006000402F
:100F200080B483B000AF7860064B064AD2F8101147
:100F30007A680A43C3F810210C37BD465DF8047B7C
:100F4000704700BF0060004080B483B000AF03462C
:100F50003960FB71FB79002B0DD0FB79012B0AD096
:100F6000FB79022B07D0FB79032B04D0FB79042BF0
:100F700001D0FB79052B0948FA793B68012101FA78
:100F800003F319461346DB0013449B00034410335C
:100F900059600C37BD465DF8047B70470060004027
:100FA00080B483B000AF03463960FB71FB79002B3E
:100FB0000DD0FB79012B0AD0FB79022B07D0FB79EE
:100FC000032B04D0FB79042B01D0FB79052B0948B6
:100FD000FA793B68012101FA03F319461346DB0055
:100FE00013449B000344103319600C37BD465DF871
:100FF000047B70470060004080B400AF72B6084BBD
:101000001B68B3F1FF3F04D0054B1B685A1C044B0F
:101010001A60034B1B681846BD465DF8047B704799
:101020003801002080B483B000AF0C4B1B68002B4C
:101030000DD00A4B1B685A1E084B1A60074B1B68E1
:101040007B607B68002B00D162B67B6800E00023E8
:1010500018460C37BD465DF8047B70473801002008
:1010600090B587B000AF2148002102F093FD2048E1
:10107000012101F0B1FB1F4B3C1D0FCB84E80F0099
:101080001D48012101F0A8FB042001210F220123AA
:1010900002F050FC042000210F22012302F04AFC40
:1010A00000237B610AE004200121FFF74DFF0420AB
:1010B0000121FFF775FF7B6901337B617B69082B99
:1010C000F1DD0A4B40F203229A633B1D07481946A3
:1010D00002F07EFD054B9B6803F00103002B02D05C
:1010E000024B20225A601C37BD4690BD00A4004030
:1010F00000C20400406B000000D2040090B587B02D
:1011000000AF2548012101F067FB244802F09CFD57
:101110002248002102F03EFD214B3C1D0FCB84E80C
:101120000F002048012101F057FB022005210F226A
:10113000012302F0FFFB022004210F22012302F011
:10114000F9FB00237B610AE002200521FFF728FF5D
:1011500002200521FFF7F8FE7B6901337B617B6983
:10116000082BF1DD022005210F22012302F0E2FB12
:101170000A4B03229A633B1D0848194602F028FDDA
:10118000064B9B6803F00103002B02D0034B202287
:101190005A601C37BD4690BD00C2040000A4004048
:1011A000406B000000D2040080B400AF204BEC2262
:1011B0005A621F4B01225A601D4B01221A6300BF65
:1011C0001B4B9B6A03F04003002BF9D0184B4022C5
:1011D0001A63174B174A12785A6200BF144B9B6A66
:1011E00003F04003002BF9D0114B40221A63104B3F
:1011F000104A52785A6200BF0D4B9B6A03F04003BD
:10120000002BF9D00A4B40221A63094B02225A6084
:1012100000BF074B9B6A03F48073002BF9D0044B8B
:101220004FF480721A63BD465DF8047B704700BFBF
:1012300000A400402401002080B400AF2B4BEC221E
:101240005A622A4B01225A60284B01221A6300BFBE
:10125000264B9B6A03F04003002BF9D0234B40221E
:101260001A63224B224A12885A6200BF1F4B9B6AA4
:1012700003F04003002BF9D01C4B40221A631B4B98
:1012800001225A60194BED225A62184B01221A634F
:1012900000BF164B9B6A03F04003002BF9D0134BA1
:1012A00040221A6300BF114B9B6A03F02003002BFE
:1012B000F9D00E4BDB69DAB20E4B1A700B4B0822D9
:1012C0005A600A4B02225A6000BF084B9B6A03F423
:1012D0008073002BF9D0054B4FF480721A63054BD5
:1012E0001B781846BD465DF8047B704700A400409B
:1012F000140700200E07002080B483B000AF024620
:101300000B46FA71BB71204B3A225A621E4B0122E6
:101310005A601D4B01221A6300BF1B4B9B6A03F0EE
:101320004003002BF9D0184B40221A63164BFA7970
:101330005A6200BF144B9B6A03F04003002BF9D0A4
:10134000114B40221A63104BBA795A6200BF0E4B00
:101350009B6A03F04003002BF9D00B4B40221A6329
:10136000094B02225A6000BF074B9B6A03F480734B
:10137000002BF9D0044B4FF480721A630C37BD4632
:101380005DF8047B704700BF00A4004080B582B0C8
:1013900000AF00237B60032003210422002302F01E
:1013A000C9FA03200321FFF7FBFD02E07B6801334C
:1013B0007B607B68B3F57A7FF8DB0837BD4680BD7C
:1013C00080B500AF03200321FFF7BEFD04200121FB
:1013D0000022002302F0AEFA0420002100220023A4
:1013E00002F0A8FA0248002101F0F6F980BD00BF22
:1013F00000C2040080B582B000AF0123FB7101235D
:10140000BB7103237B7105233B710023FB70FB79C8
:101410005B01DAB2BB799B00DBB21343DAB27B79B2
:101420001343DBB2BB703B795B01DAB2FB789B0004
:10143000DBB21343DBB27B700A4BF4221A70094B08
:10144000BA785A70FFF7B0FE064BF5221A70054BBA
:101450007A785A70FFF7A8FE00F006F80837BD4604
:1014600080BD00BF2401002090B58BB000AF0023E9
:1014700087F8273088233B6217E03B6A9AB23F4BDC
:101480001A8097F827400120FFF7D6FE0346DAB20C
:1014900007F12803234403F8282C97F82730013359
:1014A00087F827303B6A01333B6297F82730172BC8
:1014B000E3D97B781B029AB23B7813439BB29AB272
:1014C0002F4B1A80FB781B029AB2BB7813439AB257
:1014D0002C4B1A807B791B029AB23B7913439AB248
:1014E000294B1A80FB791B029AB2BB7913439BB23A
:1014F0009AB2264B1A807B7A1B029AB23B7A13432C
:101500009AB2234B1A80FB7A1B029AB2BB7A13431E
:101510009AB2204B1A807B7B1B029AB23B7B13430F
:101520009AB21D4B1A80FB7B1B029AB2BB7B134302
:101530009AB21A4B1A807B7C1B029AB23B7C1343F3
:101540009AB2174B1A80FB7C1B029AB2BB7C1343E6
:101550009AB2144B1A807B7D1B029AB23B7D1343D7
:101560009AB2114B1A80FB7D1B029AB2BB7D1343CA
:101570009AB20E4B1A802C37BD4690BD140700203E
:10158000080400201A040020420B00201607002047
:101590002404002018070020260400200C07002047
:1015A000460B0020000400201A070020400B0020FA
:1015B00080B58AB000AF00237B62F7233B6215E061
:1015C0003B6A9AB2164B1A800120FFF735FE03469C
:1015D0001A467B6A9B0007F128010B4443F8282C2C
:1015E0007B6A01337B623B6A01333B627B6A052B7A
:1015F000E6DD3B681A037B681B011A43BB681B09C5
:101600001A43084B1A60FB681A033B691B011A4313
:101610007B691B091A43044B1A602837BD4680BDFD
:1016200014070020100700200407002080B582B0B6
:1016300000AF184B1B68184600F062F87860164B34
:101640001B68184600F09EF83860786804F000FFC8
:1016500003461846114905F003F803461A46104B95
:101660001A60386804F0F0FE034618460D4904F08D
:10167000F7FF03461A460C4B1A600B4B1B681846C3
:1016800005F026F90346DAB2084B1A700837BD4652
:1016900080BD00BF04070020100700200000C842E2
:1016A0002001002000007A44580B0020180400207C
:1016B00080B500AF044B1A68044B1B7810461946DE
:1016C000FFF792FB80BD00BF2C040020180400200F
:1016D00080B500AF002003F071FF03F0B1FE064BB0
:1016E0001B68184605F0CEF80346184603F0C2FF03
:1016F000024804F079F880BD580B0020506B0000C0
:1017000080B487B000AF78607B68DA10194B1B8813
:101710005B00D31A184A128812B202FB03F3DB12E1
:101720007B617B681A11134B1B88D31A7A681111DD
:10173000104A12888A1A02FB03F31B130F4A1288FD
:1017400012B202FB03F39B133B617A693B691A44B3
:101750000B4B1A600A4B1A6813469B0013448033E4
:101760001B12FB60FB6818461C37BD465DF8047B06
:10177000704700BF080400201A040020420B00201C
:10178000540B002080B487B000AF7860484B1B68D2
:101790005B10A3F57A433B613B699B103A69921059
:1017A00002FB03F3DB12434A128812B202FB03F37B
:1017B000FB60414B1B881BB23A6902FB03F35B00E1
:1017C000FA681344FB60FB689A103C4B1B881BB201
:1017D0001B041344FB603A4B1B881BB23A699210FE
:1017E0003969891001FB02F2521302FB03F3DA108C
:1017F000344B1B881BB2396901FB03F35B101344A4
:101800009B143B613B6903F500432F4A128802FB9E
:1018100003F3DB133B613B69002B01D1002341E063
:101820007B685B421A46FB681B13D31A40F63542AD
:1018300002FB03F303F1434303F5A0037B617B69E0
:10184000002B06DB7B695A003B69B2FBF3F37B613B
:1018500005E03B697A69B2FBF3F35B007B611B4BEC
:101860001B881BB27A69D2087969C90801FB02F2A8
:10187000520B02FB03F31B133B617B699B08144A69
:10188000128812B202FB03F35B13FB603A69FB6838
:101890001A44104B1B881BB213441A117B69134462
:1018A0007B617B6918461C37BD465DF8047B704739
:1018B000540B0020460B00200C07002026040020BB
:1018C000180700202404002016070020400B0020E9
:1018D0001A0700200004002080B500AF032000217B
:1018E0000422012302F026F880BD00BF80B582B03B
:1018F00000AFFFF781FB00237B6002E07B680133D0
:101900007B607B68B3F57A7FF8DB2A20FA21FFF74A
:10191000F3FC2B200321FFF7EFFC2C200021FFF725
:10192000EBFC2D200421FFF7E7FC2E200421FFF71C
:10193000E3FC0E200021FFF7DFFC15207821FFF7E4
:10194000DBFC1720A021FFF7D7FC18200121FFF7AF
:10195000D3FC2A20FB21FFF7CFFCFFF763FB0837FE
:10196000BD4680BD80B500AF0220052100220023C6
:1019700001F0E0FF022004210022002301F0DAFF41
:10198000032001210022002301F0D4FF03200021C5
:10199000FFF7DAFA0248002100F01EFF80BD00BF09
:1019A00000D2040080B500AFFFF7DCFF00F04EF876
:1019B000044B1B780133DAB2024B1A7000F004F8C2
:1019C00080BD00BF2801002080B500AF002003F0DB
:1019D000F5FD03F035FD044B1B78184603F04AFE75
:1019E000024803F001FF80BD280100205C6B00006D
:1019F00080B500AF044B1A68044B1B78104619469B
:101A0000FFF7F2F980BD00BF2C0400202801002060
:101A100080B582B002AF0B20FFF76EFA03200121E0
:101A20000122002301F086FF01230093002301938C
:101A3000032001210122002301F016FF0B20FFF7F4
:101A400041FA0B20FFF726FABD4680BD80B500AFF6
:101A5000FFF754FBFFF740FFFFF748FFFFF7D8FF02
:101A60000B20FFF75DFA022002210022002301F083
:101A700061FF022004210022002301F05BFF02200D
:101A80000221FFF761FA02200421FFF75DFA80BD11
:101A900080B483B000AF0346FB71084B97F9072071
:101AA0005209F97901F01F01012000FA01F143F810
:101AB00022100C37BD465DF8047B704700E100E062
:101AC00080B584B000AF1D48022101F08BF81C489E
:101AD000012100F081FE4FF41653BB6000233B73DD
:101AE00000233B7000237B7300237B600023BB73C8
:101AF0003B461448194603F059F81348012100F0F9
:101B00006BFE032004210422012301F013FF18209F
:101B1000FFF7BEFF0B48012103F02EF8094B04220A
:101B20005A60084B02225A65064B02229A63054806
:101B3000002103F021F81037BD4680BD03001A00D4
:101B4000700714000040084000D2040098B500AFB0
:101B5000274B1B78052B22D8254B1B781C46254B81
:101B60001B681846FFF778F903461A46224B1A55A8
:101B7000224B1F4A127820498A5C9A6200BF1F4B91
:101B80009B6803F00803002BF9D01C4B01225A6319
:101B9000174B1B780133DAB2154B1A7026E0144B41
:101BA00000221A701548012102F0E6FF134B134A78
:101BB000526822F004025A60104B104A526D22F013
:101BC00002025A650D4B0D4A926B22F002029A6393
:101BD0000A48002102F0D0FF032004210022002344
:101BE00001F0A8FE0648002100F0F6FD98BD00BFF8
:101BF000440B00202C0400202C0100200040084051
:101C00007007140080B487B000AFF860B9607A60E4
:101C1000FB6803F10473DA00BB6813449B007B612B
:101C20007B697A681A601C37BD465DF8047B704793
:101C300080B582B000AF786039607A681D4B9A42F7
:101C400003D07A681C4B9A4200D100BF3B681B78D6
:101C5000DA073B685B789B0713431A463B685B686F
:101C60001B061A433B681B7A1B021A433B685B7ACC
:101C70001B011A437B681A603B689B7A1B071A4654
:101C80003B68DB7A1B041A433B68DB681B02134387
:101C900043F0807343F0B0037A6853607A683B681E
:101CA0001B7C104600211A46FFF7ACFF0837BD46E3
:101CB00080BD00BF001000400014004080B483B01D
:101CC00000AF78607A68094B9A4203D07A68084B73
:101CD0009A4200D100BF7B681B6823F001027B6839
:101CE0001A600C37BD465DF8047B70470010004059
:101CF0000014004080B483B000AF786013460A46F9
:101D0000FA70BB707A680C4B9A4203D07A680B4B1E
:101D10009A4200D100BF7B685B6823F0F702FB7832
:101D20001B011A43BB781A437B685A600C37BD46C7
:101D30005DF8047B704700BF0010004000140040B5
:101D400080B582B000AF786039607A68224B9A42E1
:101D500003D07A68214B9A4200D100BF7B681846B5
:101D600000210022FFF74EFF3B681B78DA073B6833
:101D70005B789B0713431A463B685B681B061A4354
:101D80003B681B7A5B041A433B685B7A1B041A436B
:101D90003B689B7A1B021A433B68DB7A1B011A43A0
:101DA0003B681B7B9B001A437B681A603B685B7B2C
:101DB0001B041A463B681B691B021A437B685A6066
:101DC0007A683B681B7D104600211A46FFF71AFF10
:101DD0000837BD4680BD00BF001000400014004021
:101DE00080B487B000AF786013460A46FA70BB70C3
:101DF000BB78002B04D01023FB603E4B3B6103E01B
:101E00000023FB603C4B3B617B685A6B3B69134092
:101E1000BB6000237B61FB78062B5BD801A252F8E4
:101E200023F000BF411E00005F1E0000831E000063
:101E3000A11E0000D51E0000D51E0000C51E00001A
:101E40002E4B5B6803F4FE437A6913437B612B4B93
:101E50005B6803F07F037A6913437B613DE0274BA6
:101E60005B6803F0FE431B0E1B027A6913437B6120
:101E7000224B5B6803F4FE031B0C7A6913437B61FE
:101E80002BE01E4B9B6803F4FE437A6913437B618E
:101E90001A4B9B6803F07F037A6913437B611CE054
:101EA000164B9B6803F0FE431B0E1B027A6913431B
:101EB0007B61124B9B6803F4FE031B0C7A6913438E
:101EC0007B610AE00D4BDB6803F07F037A69134303
:101ED0007B6102E000237B6100BFFB687A699A4066
:101EE000BB681A437B685A631C37BD465DF8047BA8
:101EF000704700BFFFFF80808080FFFFB081E00F50
:101F000080B584B000AF786039603B681B79FB72A4
:101F1000FB7A002B06D11B48002100F081F8034614
:101F2000FB7208E01748002100F07AF84FF4FA40FD
:101F3000002100F075F87B680A225A603B681B7824
:101F40001A063B68DB781B0403F4FE031A43FB7A92
:101F50001B0203F4FE431A433B685B781B011A43E0
:101F60003B689B781343FB603B685B79002B03D095
:101F7000FB6843F00803FB607B68FA681A6010375F
:101F8000BD4680BD405DC60080B584B000AF7860BE
:101F900039607B6802225A603B689B7878681946F2
:101FA0000022FFF71DFF3B681B781A073B685B7830
:101FB0001B051A433B681B791B0213431A463B68F7
:101FC000DB781B011343FB603B689B79002B03D03C
:101FD000FB6843F08073FB603B68DB79002B03D028
:101FE000FB6843F00403FB603B685B79002B03D084
:101FF000FB6843F00203FB603B681B7A002B03D0B5
:10200000FB6843F00103FB603B689B781B04FA68A4
:102010001343FB607B68FA68DA601037BD4680BD09
:1020200080B584B000AF786039607A68134B9A420B
:1020300002D9124B7B6006E07B68B3F5FA4F02D2FF
:102040004FF4FA437B603B68002B03D10C4800F04F
:102050002FFC38603A687B6813445A1E7B68B2FBD9
:10206000F3F3FB60FB68002B02D0FB68013BFB60D5
:10207000FB68DBB218461037BD4680BD405DC60028
:102080004081040080B582B000AF78607B680A228E
:102090005A607B680022DA607B6800221A617B68E4
:1020A0004FF4F8121A607B6800225A617B6840F294
:1020B00003321A627B6840F24772DA637868002163
:1020C0000022FFF78DFE786800210122FFF788FECD
:1020D0000837BD4680BD00BF80B487B000AFF86050
:1020E000B9607A60FB6803F10473DA00BB681344DB
:1020F0009B007B617B697A681A601C37BD465DF87E
:10210000047B704780B485B000AF786039607B682D
:1021100003F10473DA003B6813449B00FB60FB6827
:102120001B6818461437BD465DF8047B704700BF36
:1021300080B485B000AF78607B68002B04D07B68EA
:10214000B3F5004F00D800BF7B68B3FA83F3C3F147
:102150001F03FB60FB6818461437BD465DF8047B1F
:10216000704700BF80B400AF044BDB6C1B0EDBB2CA
:102170001846BD465DF8047B704700BFB081E00F94
:1021800080B400AF054BDB6C03F47F031B0CDBB2A8
:102190001846BD465DF8047B704700BFB081E00F74
:1021A00080B582B000AFFFF7EBFF03464A2B04D0A7
:1021B000792B02D0482B22D023E0144B1B699BB211
:1021C00003F03F039BB21B02FB80104B9B699BB249
:1021D00003F0F0039AB2FB881343FB800B4BDB69DF
:1021E00003F0F0031B099AB2FB881343FB80FB88C2
:1021F000B3F5017F01D3064B04E0064B02E0054B2B
:1022000000E0002318460837BD4680BDD0FF0FE030
:1022100000366E010048E80180B584B000AF7860F8
:1022200039607A683B689A4294BF00230123DBB28D
:10223000FB6006481E21FA68FFF74EFF044808219C
:10224000FA68FFF749FF1037BD4680BD00800C409B
:1022500004800C4080B582B000AF07481E21FFF714
:1022600051FF786005480821FFF74CFF38607B6814
:1022700018460837BD4680BD00800C4004800C40E5
:1022800080B582B000AF214B5B6903F4E063B3F526
:10229000007F1CD0B3F5007F05D8002B25D0B3F507
:1022A000807F1FD02AE0B3F5C06F24D0B3F5E06F74
:1022B0001ED0B3F5407F21D1FFF754FF0346122B08
:1022C00002D9134B7B601CE0124B7B6019E0FFF7D7
:1022D00049FF0346122B02D90F4B7B6011E00F4BD5
:1022E0007B600EE00E4B7B600BE00E4B7B6008E0EA
:1022F0000D4B7B6005E00D4B7B6002E000237B60B3
:1023000000BF7B6818460837BD4680BD00800C4082
:10231000804F120040420F0040B56400C0CF6A00F9
:10232000C0D8A700809FD500406F4001003FAB019F
:1023300080B582B000AF0D4800F0A6FB0346FB70ED
:10234000FB78072B05D0082B07D103F003FB78603F
:1023500006E0FFF795FF786002E000237B6000BF96
:102360007B6818460837BD4680BD00BF06000C00DC
:1023700080B485B000AF7860284BDB6B002B0CBFBE
:1023800000230123BB72254B41F67132DA63234BE4
:102390005B6803F00703FB60FB68012B01D9042B8A
:1023A00002D10023FB7202E00123FB7200BF7A68B6
:1023B0001B4B9A4207D9FB7A002B01D0052300E082
:1023C0000423FB6016E07A68154B9A420BD87A68B2
:1023D000144B9A4207D9FB7A002B01D0032300E06B
:1023E0000123FB6006E0FB7A002B01D0022300E012
:1023F0000023FB60094B094A526822F00701FA6882
:102400000A435A60BB7A002B02D0044B0022DA63E5
:102410001437BD465DF8047B704700BF00000C40D8
:102420000048E8010024F40080B500AF03F088FA0A
:1024300003461846FFF79CFF80BD00BF90B585B0EE
:1024400000AF78600023BB607B68344A934203D0BE
:10245000334A934200D000E000BF786800F014FBDC
:102460000346FB607B682D4A934203D02C4A93427B
:1024700006D00CE02B4B9B6A03F00303FB6006E0E5
:10248000284B9B6A03F00C039B08FB6000BFFB68B2
:10249000032B3AD801A252F823F000BFD324000046
:1024A000AD240000B5240000BD24000003F0E4FAD0
:1024B000B8602DE003F0F4FAB86029E003F026FAE2
:1024C0000446FFF7C7FE0346013324FA03F3BB605B
:1024D0001EE00023BB607A68104B9A4203D07A68F2
:1024E0000F4B9A4210D10F4B9A6A79680B4B994265
:1024F00001D1102300E0142322FA03F3002B03D0B0
:1025000003F0C4FAB86003E002E00023BB6000BF40
:10251000BB6818461437BD4690BD00BF02001800C6
:1025200003001A0000800C4080B483B000AF7860D4
:10253000094B5B6D03F00103002B00D006E000BFE8
:10254000054B1A6D7B681340002BF9D10C37BD4643
:102550005DF8047B704700BF00800C4080B582B0FE
:1025600000AF104800F090FA0346FB70FB78032B95
:1025700007D0082B09D0022B0BD103F091FA786019
:102580000AE003F079FA786006E003F0E3F9786096
:1025900002E000237B6000BF7B6818460837BD4619
:1025A00080BD00BF07232000B0B584B000AF7860C5
:1025B00039607B681B0903F00F03FB60FB68013B7C
:1025C000062B00F2F68001A252F823F0E925000064
:1025D000B3270000B32700001D2600004726000097
:1025E0009B2600005F2700003B68002B03D03B6860
:1025F000082B00D800BFFFF717FF704B6F4A126817
:1026000022F4E0313A68013A92030A431A6003F077
:102610007DF9B860B868FFF7ABFECBE03B68002BF4
:1026200004D03B68B3F5007F00D800BF3868FFF7DF
:102630007FFD3860614B614A926822F00F013A6871
:102640000A439A60B6E03B68002B04D03B68B3F5C0
:10265000007F00D800BFFFF7E7FE03F07BF90246DA
:102660003B68B2FBF3F4FFF79BFD03462046194697
:10267000FFF7D2FD3868FFF75BFD38604F4B4F4ADC
:10268000526822F00F013A680A435A6003F03EF99B
:10269000B860B868FFF76CFE8CE07B68484A9342EC
:1026A0001ED0474A934203D8464A934207D055E08A
:1026B000454A934225D0454A93423FD04EE00420FC
:1026C000FFF732FF3868FFF733FD38603B4B3B4A7A
:1026D000926E22F0F0013A6812010A439A663DE0D8
:1026E0000420FFF721FF3868FFF722FD3860334BE5
:1026F000324A926E22F470613A6812020A439A6674
:102700002CE03B680F2B03D93B68802B00D800BF1F
:102710000420FFF709FF3868FFF70AFD3860274CEF
:10272000264B9B6E23F440551020FFF701FD034616
:102730003A68D31A1B032B43A3660FE00420FFF76C
:10274000F3FE3868FFF7F4FC38601C4B1B4A926EAE
:1027500022F003013A680A439A6600BF2AE07B68C8
:102760001B4A934203D01B4A934210D020E04020E2
:10277000FFF7DAFE3868FFF7DBFC38600F4B0F4AD3
:10278000126F22F003013A680A431A6710E04020F2
:10279000FFF7CAFE3868FFF7CBFC3860074B074AE3
:1027A000126F22F030013A6812010A431A6700BF23
:1027B00000E000BF1037BD46B0BD00BF00800C4038
:1027C00060261200601610006000240060062800D9
:1027D000700714007017160090B587B000AF7860CE
:1027E0000B46FB7000233B617B681B0A03F00F0361
:1027F000013B092B49D801A252F823F041280000DF
:1028000047280000252800008B2800008B280000A6
:102810004D280000572800008B2800008B2800005E
:10282000612800001B4B7B611B4800F041F8044607
:10283000FFF7B6FC034620461946FFF7EDFC12E011
:10284000164B7B610FE0164B7B610CE0154B7B61F7
:1028500001233B6107E0144B7B6110233B6102E0E5
:10286000124B7B6100BF7B681B0B03F01F03FB60F7
:102870003B69002B02D03869FFF756FEFB78786978
:10288000F9681A46FFF728FC00E000BF1C37BD4678
:1028900090BD00BF40800C400043020008800C4007
:1028A00044800C4058800C4060800C4078800C4084
:1028B00090B585B000AF78607B6803F47813B3F50A
:1028C000A01F00F0AB80B3F5A01F1AD8B3F5402FBE
:1028D00000F0BF80B3F5402F08D8B3F5003F3CD0DF
:1028E000B3F5802F2DD0002B27D0BEE0B3F5801F8D
:1028F0003CD0B3F5901F47D0B3F5602F00F0AD800A
:10290000B3E0B3F5001F00F0AC80B3F5001F0AD8A8
:10291000B3F5C01F25D0B3F5D01F7AD0B3F5B01FE3
:1029200000F08980A1E0B3F5181F4ED0B3F5201F49
:1029300062D0B3F5101F35D097E003F00BF8F860C4
:1029400096E003F007F8F8604C4B9B6803F00F0328
:10295000FA6822FA03F3FB608AE002F0D7FFF8601E
:1029600086E04748FFF76AFDF86081E04448FFF7DA
:1029700065FDF860414B9B6E03F0F0031B09FA689C
:1029800022FA03F3FB6073E03D48FFF757FDF86060
:102990003A4B9B6E03F470631B0AFA6822FA03F346
:1029A000FB6065E03648FFF749FDF860334B9B6EEE
:1029B00003F440531C0B1020FFF7BAFB03462344DB
:1029C000FA6822FA03F3FB6052E02D48FFF736FD68
:1029D000F8602A4B9B6E03F440531B0BFA6822FAF3
:1029E00003F3FB60254BDB6F03F007030133FA6849
:1029F000B2FBF3F3FB603BE02148FFF71FFDF860FB
:102A00001E4B9B6E03F00303FA6822FA03F3FB608C
:102A10002EE01C48FFF712FDF86029E01948FFF787
:102A20000DFDF860154B1B6F03F00303FA6822FAE3
:102A300003F3FB601CE01348FFF700FDF8600F4B49
:102A40001B6F03F030031B09FA6822FA03F3FB60E3
:102A50000EE0FFF76DFCF8600AE0FFF711FCF8608C
:102A600006E0FFF77BFDF86002E00023FB6000BF9B
:102A7000FB6818461437BD4690BD00BF00800C406F
:102A80000200180003001A0080B485B000AF78601F
:102A90000123FB737B6803F00F03BB60BB68013B42
:102AA000062B00F2938001A252F823F0C92A0000FD
:102AB000FF2A00003B2B0000CD2B0000CD2B000097
:102AC000772B0000992B0000454BDB6A03F4705311
:102AD000B3F5805F09D0B3F5005F03D0B3F5006FA5
:102AE00006D008E00223FB7308E00323FB7305E034
:102AF0000423FB7302E00523FB7300BF69E0384B3E
:102B00009B6A03F00303022B06D0032B07D0012B93
:102B100008D10323FB730FE00223FB730CE00623B1
:102B2000FB7309E02E4B9B6A03F48033002B02D029
:102B30000923FB7300E000BF4BE0294B9B6A03F0C5
:102B40000C03082B06D00C2B07D0042B08D1032331
:102B5000FB730FE00223FB730CE00623FB7309E019
:102B60001F4B9B6A03F48013002B02D00923FB73D5
:102B700000E000BF2DE01A4B1B6803F08053002BD0
:102B800003D0B3F1805F03D023E00723FB7302E09F
:102B90000823FB7300BF1CE0114BDB6A03F46033B6
:102BA000B3F5803F08D0B3F5003F08D0B3F5004F30
:102BB00008D10823FB7308E00223FB7305E003231D
:102BC000FB7302E00123FB7300BF02E00023FB73F1
:102BD00000BFFB7B18461437BD465DF8047B704789
:102BE00000800C4090B589B000AF78600B46FB7058
:102BF0000323FB610323FB7600233B617B6803F027
:102C00000F03FB60FB68013B062B00F2348101A23D
:102C100052F823F0312C00001D2D00001D2D000066
:102C2000772E0000772E0000E52D00000F2E00000B
:102C3000FB78023B072B00F2228101A252F823F01D
:102C4000612C00006B2C0000752C0000BF2C0000D4
:102C50007F2E00007F2E00007F2E00007F2E0000C0
:102C60000423FB610023FB7639E00323FB6101238E
:102C7000FB7634E00223FB610223FB76FFF790FA38
:102C800003465C1CFFF78CFA034620461946FFF703
:102C9000C3FA02F0DFFE02467C4B9A4206D97C4B17
:102CA0007B4A126842F060021A6018E0784B784A5A
:102CB000126822F0600242F020021A600FE0012345
:102CC000FB610323FB76FFF76BFA03465C1CFFF7FF
:102CD00067FA034620461946FFF79EFA00BFFB7EBF
:102CE00018460121012200F0F7F8FFF79DFB684B21
:102CF000FA695A626748FFF7DBFD0446FFF750FAAE
:102D0000034620461946FFF787FA00F01DFD02F042
:102D1000FDFDB860B868FFF72BFBADE0FB78013B29
:102D2000082B00F2AE8001A252F823F0512D0000D2
:102D3000572D0000672D0000832E0000832E000019
:102D4000772D0000832E0000832E00009B2D0000B5
:102D500000237B6126E000200121012200F0BCF865
:102D600002237B611EE001200121012200F0B4F862
:102D700001237B6116E002F0C9FDB860FFF710FA8D
:102D80000346B8681946FFF747FA43480421012271
:102D9000FFF7A2F903237B6104E000237B61012399
:102DA0003B6100BFFB68022B0DD1394A384B9B6A4F
:102DB00023F4803323F00303796919433B691B042F
:102DC0000B43936258E0324A314B9B6A23F48013E1
:102DD00023F00C037969890019433B691B050B43F8
:102DE000936249E0FB78072B02D0082B07D049E01B
:102DF000274B274A126822F080521A6006E0244BC3
:102E0000234A126842F080521A6000BF34E0FB7817
:102E1000032B14D0082B22D0022B00D032E000204C
:102E20000121012200F058F8194B40225A6200BFDC
:102E3000174BDB6A03F48033002BF9D01AE0012032
:102E40000121012200F048F8114B60225A6200BFB4
:102E50000F4BDB6A03F40033002BF9D00AE00C4B74
:102E600020225A6200BF0A4BDB6A03F40043002BA6
:102E7000F9D000BF00E000BFFFF7ECF902E000BFAF
:102E800000E000BF2437BD4690BD00BF0048E80108
:102E900000800C400043020040800C4080B483B0AE
:102EA00000AF78600B4B9B6D03F00803002B00D044
:102EB0000BE07B6803F007037B60064B054AD26F8B
:102EC00022F007017A680A43DA670C37BD465DF8DD
:102ED000047B704700800C4080B586B000AF13467D
:102EE0000246FA710A46BA717B71FB79042B4AD803
:102EF00001A252F823F000BF452F0000372F000039
:102F00001B2F00000D2F0000292F000001233B6123
:102F10000223FB6001237B611DE004233B61082346
:102F2000FB6003237B6116E010233B612023FB60E1
:102F300005237B610FE040233B618023FB60072377
:102F40007B6108E04FF480733B614FF40073FB60DA
:102F500009237B6100BFBB79002B0ED00C4B3A6973
:102F60001A627B79002B0BD000BF0A487969FFF702
:102F7000C9F80346002BF8D002E0054BFA681A6244
:102F800000F0E2FB00E000BF1837BD4680BD00BF87
:102F900000800C402C800C4080B483B000AF03460E
:102FA000FB71084B97F907205209F97901F01F01CD
:102FB000012000FA01F143F822100C37BD465DF8FC
:102FC000047B704700E100E080B483B000AF0346AB
:102FD000FB71094B97F907205209F97901F01F019C
:102FE000012000FA01F1203243F822100C37BD46CF
:102FF0005DF8047B704700BF00E100E080B483B05F
:1030000000AF0346FB71094B97F907205209F97984
:1030100001F01F01012000FA01F1603243F8221093
:103020000C37BD465DF8047B704700BF00E100E04F
:1030300080B487B000AFF860B9607A60FB6803F1D4
:103040000473DA00BB6813449B007B617B697A6878
:103050001A601C37BD465DF8047B704780B489B0A8
:1030600000AF7860F970BA707B707B681A013C4BD6
:103070009B681344BB61BB78002B02D0BB69FB612A
:1030800005E07B681A01364BDB681344FB61BB69C2
:10309000DB687B617B69002B02D0BA787B691A728E
:1030A000FB6A002B14D0FB699B6803F040639B0E06
:1030B0003B613B69032B03D1FB69FA6A1A6007E0A5
:1030C0003B693A6B9A40FB6A13441A46FB691A60E3
:1030D000BB6A002B12D0FB699B689B0F3B613B696D
:1030E000032B03D1FB69BA6A5A6007E03B693A6B6C
:1030F0009A40BB6A13441A46FB695A607B680122F6
:1031000002FA03F3FB607B78002B03D0144BFA68C0
:103110009A6102E0124BFA68DA61BB78002B03D0A7
:103120000F4BFA685A6302E00D4BFA681A63FB69A9
:103130009B6823F47F5323F03703BB603B6B1B0179
:10314000BA681343BB60FB78BA681343BB60FB6982
:10315000BA689A602437BD465DF8047B704700BFAB
:1031600000200C4080B58AB000AF334B03F580538C
:103170001B68BB61304B03F580530C331B68BA6985
:103180001340BB612C4B9B6B7B61BA697B6913401D
:103190003B620023FB6149E000237B623BE03B6A2A
:1031A00003F00103002B30D0234B9B683B610122CD
:1031B0007B6A02FA03F3FB601F4B03F5805308336D
:1031C000FA681A607B6A1B013A691344DB68BB60CA
:1031D000BB68002B19D0BB681B7A7B60BB681B7A6D
:1031E00083F00103DAB2BB681A72BB681B68002B5C
:1031F0000BD0BB681B68786A7A68002A0CBF002273
:103200000122D1B2BA68526898473B6A5B083B62B8
:103210007B6A01337B623B6A002BC0D17B69DA4356
:10322000BB6913403B62FB690133FB61FB69012B06
:10323000B2DD2837BD4680BD00200C4080B588B087
:1032400004AFF8607B600B46FB721346BB72FA7AE0
:10325000BB7A79680091B9690191F9690291F868BE
:103260000121FFF7FBFE044BFA68012101FA02F28B
:103270009A621037BD4680BD00200C4080B584B0F6
:1032800000AF786039601F4B9B68FB607B681B0157
:10329000FA6813443A689268DA603B681B78002B3E
:1032A00006D0184B7A68012101FA02F29A6305E010
:1032B000144B7A68012101FA02F2DA63114B3A6881
:1032C00051687A6802F5886243F822103B685B789F
:1032D000002B0ED00B4B7A68012101FA02F203F5A4
:1032E000805308331A60084879680122FFF7A0FE6E
:1032F00004E0054879680022FFF79AFE1037BD46C2
:1033000080BD00BF00200C400C300C4080B487B062
:1033100000AFF8600B467A60FB72FB7A002B03D09B
:10332000154B9B687B6102E0134BDB687B61FB689C
:103330001B017A6913447B617B681B789A077B6861
:103340009B781B071A437B685B789B061A437B6854
:103350009B781B0613431A467B681B799B041A4310
:103360007B68DB789B031A437B699A601C37BD46F8
:103370005DF8047B704700BF00200C4080B582B030
:1033800000AF786010480121FFF726FA00F020F81E
:103390000020FFF733FE0020FFF7FEFD0B4B03F587
:1033A00080530C334FF000421A60084B7A68526821
:1033B0009A60064B7A681278520142F001025A6014
:1033C0000837BD4680BD00BF0003020000200C404E
:1033D00080B582B000AF0020FFF7F6FD1C4B002245
:1033E0005A601B4B40F6FF72DA61194B40F6FF72D0
:1033F0005A62174B40F6FF72DA62154B40F6FF72C5
:103400005A63134B40F6FF72DA63114B0122DA6400
:103410000F4B03F580530C3300221A600C4B03F55D
:10342000805308330B4A1A6000237B6009E0084B85
:103430007A6802F58862002143F822107B68013324
:103440007B607B680B2BF2DD0837BD4680BD00BF7B
:1034500000200C40FF0F008080B500AF02F056FA4C
:1034600080BD00BF80B400AF034B0022C3F88420AE
:10347000BD465DF8047B704700800C4080B400AF0F
:10348000044B45F60E02C3F88420BD465DF8047B6C
:10349000704700BF00800C4080B582B000AF384B51
:1034A000D3F8843003F001037B60FFF7E7FF0023CC
:1034B0003B60344B1B6803F001033A6813433B60E5
:1034C000304B1B6803F010033A6813433B602D4BED
:1034D0001B6803F040033A6813433B60294B1B68A9
:1034E00003F004033A6813433B60264B1B6803F464
:1034F00080733A6813433B60214B3A681A62214B50
:103500001B6803F47053B3F5805F06D0B3F5005F1A
:103510000ED0B3F5006F16D020E000BF184BDB6A69
:1035200003F08003002BF9D0154B03225A6215E0FB
:1035300000BF134BDB6A03F40073002BF9D0104B70
:1035400004225A620AE000BF0D4BDB6A03F0080355
:10355000002BF9D00A4B02225A6200BF094B1B68AC
:1035600003F00103002B02D1054B02221A627B6893
:10357000002B01D0FFF776FF0837BD4680BD00BFA6
:1035800000800C403401002080B483B000AF174BA2
:103590001B699BB203F03F039BB21B02FB80134BE2
:1035A0009B699BB203F0F0039AB2FB881343FB8044
:1035B0000E4BDB6903F0F0031B099AB2FB8813433F
:1035C000FB80FB88B3F5827F03D3FB88B3F5017FD3
:1035D00001D1012300E0002303F00103DBB2184610
:1035E0000C37BD465DF8047B704700BFD0FF0FE08D
:1035F00080B586B000AF0346FB711F4BDA6A1F4BE4
:103600001A601F4B1E4A126942F004021A61FFF74A
:10361000BBFF0346FB75FB7D002B11D0194B1A68CD
:10362000194B1340FB60174BFA68C3F88020154B09
:103630005B6823F046033B61124B3A69C3F8842070
:1036400030BFFB7D002B05D00E4BFA681A600D4B86
:103650003A695A60FB79002B02D0FFF71DFF07E0A3
:10366000064B1B6803F48063002B01D1FFF7F4FEC7
:103670001837BD4680BD00BF00800C4034010020DB
:1036800000ED00E000E100E09CF1FD0080B586B0B7
:1036900000AF0346FB71274BDA6A274B1A60254BB4
:1036A000D3F8843003F001037B61FFF7E7FE214B81
:1036B0004FF420721A627B69002B01D0FFF7D2FE13
:1036C0001E4B1E4A126942F004021A61FFF75CFFAA
:1036D0000346FB74FB7C002B11D0194B1A68194B65
:1036E0001340BB60164BBA68C3F88020144B5B686C
:1036F00023F04603FB60124BFA68C3F8842030BF06
:10370000FB7C002B05D00E4BBA681A600C4BFA6894
:103710005A60FB79002B02D0FFF7BEFE07E0064B94
:103720001B6803F48063002B01D1FFF795FE183767
:10373000BD4680BD00800C403401002000ED00E05B
:1037400000E100E09CF1FD0080B400AF034BDA6AB9
:10375000034B1A60BD465DF8047B704700800C4047
:103760003401002080B487B000AFF860B9607A609F
:10377000FB6803F10473DA00BB6813449B007B61B0
:103780007B697A681A601C37BD465DF8047B704718
:1037900080B485B000AFF860B9607A60FB681A68E1
:1037A000BB68DB431A407B681A43FB681A60143716
:1037B000BD465DF8047B704780B483B000AF03461C
:1037C0003960FB71FB79002B0DD0FB79012B0AD0FE
:1037D000FB79022B07D0FB79032B04D0FB79042B58
:1037E00001D0FB79052B0948FA793B68012101FAE0
:1037F00003F319461346DB0013449B0003441033C4
:1038000059600C37BD465DF8047B7047006000408E
:1038100080B483B000AF03463960FB71FB79002BA5
:103820000DD0FB79012B0AD0FB79022B07D0FB7955
:10383000032B04D0FB79042B01D0FB79052B09481D
:10384000FA793B68012101FA03F319461346DB00BC
:1038500013449B000344103319600C37BD465DF8D8
:10386000047B70470060004080B586B000AFB9604F
:103870007A600246FA73BB73FB7B002B0DD0FB7B97
:10388000012B0AD0FB7B022B07D0FB7B032B04D040
:10389000FB7B042B01D0FB7B052BBB68072B0ED8D1
:1038A000BB689B0007229A40F97BBB689B0001FA2A
:1038B00003F31A4811461A46FFF76AFF10E0BB6887
:1038C000083B7B617B699B0007229A40F97B7B69FF
:1038D0009B0001FA03F3124811461A46FFF758FFFE
:1038E000BB7B1048B9681A46FFF73CFF97F82030B9
:1038F0000D48B9681A46FFF735FF0C4BBA6801212D
:1039000001FA02F2C3F81C2197F824300848B9687C
:103910001A46FFF727FF1837BD4680BD00610040FB
:1039200004610040086100400C61004000600040FC
:103930001061004090B585B000AFB9607B60034670
:10394000FB731346BB73FB7B002B0DD0FB7B012B62
:103950000AD0FB7B022B07D0FB7B032B04D0FB7B25
:10396000042B01D0FB7B052BBB7B002B0DD07B6890
:10397000002B05D0FB7B1846B968FFF749FF04E030
:10398000FB7B1846B968FFF717FFBB68072B1DD8EC
:103990002B48FA7B2A4CF97B0B46DB000B449B003F
:1039A00023445968BB689B000F2404FA03F3DB43EC
:1039B0001940BC7BBB689B0004FA03F31943134610
:1039C000DB0013449B000344596024E01C48FA7B4D
:1039D0001B4CF97B0B46DB000B449B002344083354
:1039E0001968BB6803F18043083B9B000F2404FA6D
:1039F00003F3DB431940BC7BBB6803F18043083B06
:103A00009B0004FA03F319431346DB0013449B00A5
:103A1000034408331960BB7B002B0DD17B68002B5E
:103A200005D0FB7B1846B968FFF7F2FE04E0FB7B8C
:103A30001846B968FFF7C0FE1437BD4690BD00BFF9
:103A40000060004080B487B000AFF860B9607A6071
:103A5000FB6803F10473DA00BB6813449B007B61CD
:103A60007B697A681A601C37BD465DF8047B704735
:103A700080B485B000AFF860B9607A60FB681A68FE
:103A8000BB68DB431A407B681A43FB681A60143733
:103A9000BD465DF8047B704780B588B000AFF86024
:103AA000B9607A60FB707B68002B00D15EE0FB6838
:103AB0001B6823F44072FB681A60FA68FB781B02EB
:103AC00010464FF440711A46FFF7D2FFBB68002B37
:103AD00003D12848FEF7ECFEB8604FF0FF33BB611E
:103AE000FB681B6803F00203002B11D0FB78012B4D
:103AF00007D0022B08D0002B00D019E01E4BBB6171
:103B000005E01E4BBB6102E01D4BBB6100BF0FE037
:103B1000FB78012B06D0022B07D0002B08D1194BC4
:103B2000BB6105E0184BBB6102E0184BBB6100BFF5
:103B3000FB78174AD35C7B617B689B00BA68D21A1A
:103B40007B69796801FB03F3B2FBF3F3013BFB6193
:103B5000FB681B6803F00203002B04D0FB69002BF9
:103B600001D10123FB61FA69FB681A612037BD4668
:103B700080BD00BF4081040040164000C0D8A700AF
:103B80008050740180841E0040548900002D310152
:103B9000646B000080B582B000AF78600B46FB70AC
:103BA0007A68094B9A4203D07A68084B9A4200D14E
:103BB00000BF7A68FB78104600211A46FFF742FFE3
:103BC0000837BD4680BD00BF00A0004000A40040F3
:103BD00080B582B000AF786039607A68174B9A423E
:103BE00003D07A68164B9A4200D100BF7B6800224E
:103BF0005A637B68134A1A637A683B685B78002BC8
:103C000001D0002300E00123104601211A46FFF7EE
:103C100019FF3B6859683B689A683B681B7B78686A
:103C2000FFF73AFF7A683B681B78104600211A4676
:103C3000FFF708FF0837BD4680BD00BF00A0004069
:103C400000A40040CFFF010080B483B000AF7860D3
:103C50007B6800221A607B6800221A617B68002260
:103C60005A617B6800229A617B6800225A637B68F4
:103C7000034A1A630C37BD465DF8047B704700BFEA
:103C8000CFFF010080B483B000AF0346FB71FB7926
:103C9000002B06D0084B084A126842F001021A6055
:103CA00005E0054B044A126822F001021A600C3745
:103CB000BD465DF8047B704700A0084080B487B023
:103CC00000AFF860B9607A60FB6803F10473DA0052
:103CD000BB6813449B007B617B697A681A601C3760
:103CE000BD465DF8047B704780B584B000AF786056
:103CF000184B5B68FB600020FFF7C4FFFB6823F4F0
:103D0000830323F01F03FB607B685B68FA6813433F
:103D1000FB607B681B7AFA681343FB607B685B7A05
:103D2000FA681343FB607B68DB68FA681343FB6047
:103D30007B681B8AFA681343FB60064BFA685A607B
:103D40007B681B78002B02D00120FFF79BFF103708
:103D5000BD4680BD00A0084080B485B000AF78604B
:103D60000D4B5B68FB60FB6823F48033FB607B6872
:103D7000002B08D0B3F5803F00D005E0FB6843F48A
:103D80008033FB6000E000BF034BFA685A601437D1
:103D9000BD465DF8047B704700A0084080B483B046
:103DA00000AF02460B46FA807B717B79002B06D070
:103DB000094B094A9168FA880A439A6006E0064B63
:103DC000054A9168FA88D2430A409A600C37BD468A
:103DD0005DF8047B704700BF00A0084080B584B048
:103DE00000AFF860B9601346FB71FB68072B00F267
:103DF000C38001A252F823F0193E0000453E0000A6
:103E0000713E00009D3E0000C93E0000F53E0000EE
:103E1000213F00004D3F0000BB681F2B07DCBA6844
:103E2000FB79574811461A46FFF748FFA5E0BB68E3
:103E3000203BBB60BA68FB79524811461A46FFF72F
:103E40003DFF9AE0BB681F2B07DCBA68FB794E4840
:103E500011461A46FFF732FF8FE0BB68203BBB607C
:103E6000BA68FB79494811461A46FFF727FF84E0F4
:103E7000BB681F2B07DCBA68FB79454811461A4618
:103E8000FFF71CFF79E0BB68203BBB60BA68FB7999
:103E9000404811461A46FFF711FF6EE0BB681F2B22
:103EA00007DCBA68FB793C4811461A46FFF706FF63
:103EB00063E0BB68203BBB60BA68FB7937481146BA
:103EC0001A46FFF7FBFE58E0BB681F2B07DCBA68F9
:103ED000FB79334811461A46FFF7F0FE4DE0BB6808
:103EE000203BBB60BA68FB792E4811461A46FFF7A3
:103EF000E5FE42E0BB681F2B07DCBA68FB792A4865
:103F000011461A46FFF7DAFE37E0BB68203BBB607C
:103F1000BA68FB79254811461A46FFF7CFFE2CE018
:103F2000BB681F2B07DCBA68FB79214811461A468B
:103F3000FFF7C4FE21E0BB68203BBB60BA68FB7999
:103F40001C4811461A46FFF7B9FE16E0BB681F2B46
:103F500007DCBA68FB79184811461A46FFF7AEFE2F
:103F60000BE0BB68203BBB60BA68FB791348114685
:103F70001A46FFF7A3FE00E000BF1037BD4680BD24
:103F800040A0084050A0084044A0084054A0084069
:103F900048A0084058A008404CA008405CA0084039
:103FA000CCA00840B4A00840D0A00840B8A0084069
:103FB000D4A00840BCA00840D8A00840C0A0084039
:103FC00080B487B000AFF860B9607A60FB68072BF7
:103FD00000F2AC8001A252F823F000BFFD3F0000C8
:103FE0002140000045400000694000008D40000075
:103FF000B5400000DD400000054100004E4B1B6C49
:104000007B61BB68DB437A6913407B61BA687B687C
:1040100013407A6913437B61474B7A691A6486E0DF
:10402000454B5B6C7B61BB68DB437A6913407B610A
:10403000BA687B6813407A6913437B613E4B7A69A7
:104040005A6474E03C4B9B6C7B61BB68DB437A69D0
:1040500013407B61BA687B6813407A6913437B61C4
:10406000354B7A699A6462E0334BDB6C7B61BB68E9
:10407000DB437A6913407B61BA687B6813407A69D5
:1040800013437B612C4B7A69DA6450E02A4BD3F8F6
:10409000CC307B61BB68DB437A6913407B61BA68D3
:1040A0007B6813407A6913437B61234B7A69C3F8B9
:1040B000CC203CE0204BD3F8D0307B61BB68DB43A5
:1040C0007A6913407B61BA687B6813407A6913434D
:1040D0007B61194B7A69C3F8D02028E0164BD3F8DE
:1040E000D4307B61BB68DB437A6913407B61BA687B
:1040F0007B6813407A6913437B610F4B7A69C3F87D
:10410000D42014E00C4BD3F8D8307B61BB68DB4380
:104110007A6913407B61BA687B6813407A691343FC
:104120007B61054B7A69C3F8D82000E000BF1C37DB
:10413000BD465DF8047B704700A0084080B487B09E
:1041400000AFF860B9607A60FB68072B00F2AC80C2
:1041500001A252F823F000BF794100009D41000008
:10416000C1410000E5410000094200003142000069
:1041700059420000814200004E4B1B6D7B61BB68C1
:10418000DB437A6913407B61BA687B6813407A69C4
:1041900013437B61474B7A691A6586E0454B5B6D3B
:1041A0007B61BB68DB437A6913407B61BA687B68DB
:1041B00013407A6913437B613E4B7A695A6574E018
:1041C0003C4B9B6D7B61BB68DB437A6913407B6131
:1041D000BA687B6813407A6913437B61354B7A690F
:1041E0009A6562E0334BDB6D7B61BB68DB437A69C8
:1041F00013407B61BA687B6813407A6913437B6123
:104200002C4B7A69DA6550E02A4BD3F8B4307B61E5
:10421000BB68DB437A6913407B61BA687B681340F3
:104220007A6913437B61234B7A69C3F8B4203CE07D
:10423000204BD3F8B8307B61BB68DB437A6913400D
:104240007B61BA687B6813407A6913437B61194BC1
:104250007A69C3F8B82028E0164BD3F8BC307B61EC
:10426000BB68DB437A6913407B61BA687B681340A3
:104270007A6913437B610F4B7A69C3F8BC2014E061
:104280000C4BD3F8C0307B61BB68DB437A691340C9
:104290007B61BA687B6813407A6913437B61054B85
:1042A0007A69C3F8C02000E000BF1C37BD465DF846
:1042B000047B704700A0084080B483B000AF7860F2
:1042C000064B064A526822F4E0117A680A435A60A3
:1042D0000C37BD465DF8047B704700BF00A0084066
:1042E00080B487B000AFF860B9607A60FB6803F112
:1042F0000473DA00BB6813449B007B617B697A68B6
:104300001A601C37BD465DF8047B704780B582B0EB
:1043100000AF78600B46FB70FB78002B01D000F0FB
:10432000A5FA7B681B7D184600F020F9504B7A688F
:10433000527891007A68927811437A6892681143B2
:104340007A68D26811437A68D278520211437A6847
:104350001279920211437A685279520311437A68B2
:104360009279520411437A68D279120411437A681F
:10437000527C92050A431A607B681B78184600211C
:1043800000F0D6F83A4B7A68127E11467A68527E6F
:10439000920011437A68927E920111437A68D27E2C
:1043A000520011437A68127F120111437A68527FDA
:1043B000120211437A68927F920211437A68126A5C
:1043C00011437A6892F82420120511437A6892F812
:1043D0002520920511437A68926A0A439A60244B19
:1043E0007A68928D11467A6892F83B2092021143C6
:1043F0007A6892F83C20920311437A6892F83D2043
:10440000920411437A6892F83E20920511437A682B
:1044100092F83420520011437A6892F835209200C5
:1044200011437A6892F83620D20011437A6892F8E4
:104430003720120111437A6892F838205201114353
:104440007A6892F83920920111437A6892F83A20FA
:10445000D2010A43DA607B681B6B184600F0DCF976
:10446000034B7A68127C1A610837BD4680BD00BFD5
:1044700000C0084080B588B000AF78603960002384
:10448000FB610123BB613F237B617B68002B03D170
:104490002548FEF70DFA78603B68002B04D03A6897
:1044A0007B689A4200D808E007E0FB690133FB61B2
:1044B000FB69012202FA03F3BB613B68BA6902FBA4
:1044C00003F37A68B2FBF3F27B6901339A4202D9B3
:1044D000FB69062BE9D93B68BA6902FB03F37A68EA
:1044E000B2FBF3F3013B7B61104B5B6823F47F234A
:1044F00023F4E0633B61FB691A027B691B031343EE
:104500003A6913433B61094B3A695A607B6901334D
:10451000BA6902FB03F37A68B2FBF3F3FB60FB6852
:1045200018462037BD4680BD6006280000C0084000
:1045300080B584B000AF02460B46FA71BB710A4BDE
:104540001B6823F00303FB60FB79FA681343FB60ED
:10455000054BFA681A60BB79002B01D000F06CF9AA
:104560001037BD4680BD00BF00C0084080B485B094
:1045700000AF0346FB71094B5B6823F44003FB600B
:10458000FB799B05FA681343FB60044BFA685A6099
:104590001437BD465DF8047B704700BF00C008407B
:1045A00080B485B000AF02460B46FA71BB71FB794F
:1045B000002B0FD0012B00D01AE0104B5B6823F0CA
:1045C0000303FB60BB79FA681343FB600B4BFA688B
:1045D0005A600DE0094B5B6823F07003FB60BB7908
:1045E0001B01FA681343FB60044BFA685A6000BF72
:1045F0001437BD465DF8047B704700BF00C008401B
:1046000080B584B000AF786039607B685B68B3F5D3
:10461000C03F0BD13B68022B08D03B68032B05D071
:104620003B68042B02D03B68052B00D100BF7B68A0
:104630001B7A032B0BD13B680C2B08D03B680D2B4E
:1046400005D03B680E2B02D03B680F2B00D100BF7A
:104650007B681B7A032B0BD13B68002B08D03B688F
:10466000012B05D03B68022B02D03B68032B00D105
:1046700000BF394B9A6B3B685B00032101FA03F3DF
:10468000DB431340FB607B681B7A1A463B685B0088
:1046900002FA03F3FA681343FB602F4BFA689A633C
:1046A0003B68D8B27B68D97B7B681A7C7B685B7C73
:1046B00000F05AF828497B685B7B5A047B689B7B37
:1046C0009B041A437B689B8A1A437B68DB8A1A43E4
:1046D0007B685B681A437B685B7ADB041A433B6840
:1046E0002C331B010B445A601B497B68DA697B68D9
:1046F0009B7A5B041A437B681B7B9B041A437B6891
:10470000DB7ADB041A433B681B010B4403F532736D
:104710001A603B68D9B27B685A8A7B681B8B084653
:1047200011461A4600F03CF87B689B780B483968C4
:104730001A46FFF7D5FD7B685B78094839681A4649
:10474000FFF7CEFD7B681B78064839681A46FFF7ED
:10475000C7FD1037BD4680BD00C008404CC00840B2
:1047600054C0084018C0084080B483B000AFF8714E
:10477000B9717A713B710949FB79B8797A799201FB
:1047800010433A79520302432C331B010B441A6045
:104790000C37BD465DF8047B704700BF00C0084081
:1047A00080B485B000AF13460246FA710A46BA805B
:1047B0007B80184AFB792C331B0113445B6823F47C
:1047C0007F6323F00F03FB60BB88FA681343FB6031
:1047D000104AFB792C331B011344FA685A600D4AC6
:1047E000FB791B01134403F532731B681B0C1B047C
:1047F000FB607B88FA681343FB60064AFB791B0168
:10480000134403F53273FA681A601437BD465DF835
:10481000047B704700C0084080B483B000AF78606C
:10482000044B7A6802F00F021A630C37BD465DF83C
:10483000047B704700C0084080B400AF00BF0A4B43
:104840001B6D03F02003002BF9D1074B01225A61A5
:1048500000BF054B1B6D03F02003002BF9D1BD46B3
:104860005DF8047B704700BF00C0084080B483B08F
:1048700000AF374B0022DA64354B364A5A64344B6A
:10488000334AD26842F00102DA6000BF304B1B6D40
:1048900003F02003002BF9D12D4B0A225A612C4B37
:1048A00000221A602A4B00229A60294B0022DA600B
:1048B000274B00221A61264B00229A61244B0022CA
:1048C0009A63234B0022DA63214B00225A650023AE
:1048D0007B6018E01E4A7B682C331B0113440022C6
:1048E0001A601B4A7B682C331B01134400225A6058
:1048F000174A7B681B01134403F5327300221A60C8
:104900007B6801337B607B680F2BE3D900237B60DE
:104910000FE00F4B7A684032002143F832100C4A06
:104920007B684033DB00134400225A607B6801330C
:104930007B607B680F2BECD900BF054B1B6D03F030
:104940002003002BF9D10C37BD465DF8047B70477E
:1049500000C00840FFFF7F0080B487B000AFF86060
:10496000B9607A60FA68114B9A4208D1BB68012B92
:1049700005D87B681B0C1B04002B00D100BFBB6853
:10498000002B02D0012B04D00AE0FB6810337B61BE
:1049900003E0FB6814337B6100BF7B697A681A60AF
:1049A0001C37BD465DF8047B704700BF00200840FF
:1049B00080B483B000AF78600B46FB70FB78002BAF
:1049C00003D07B6801225A6002E07B6802225A60B1
:1049D0000C37BD465DF8047B704700BF80B485B0DE
:1049E00000AF786039600023FB603B681B7883F080
:1049F0000103DBB2002B08D07B689B6803F0010346
:104A0000002B02D07B6802225A603B685B78002B47
:104A100003D0FB6843F48053FB603B689B78002B1A
:104A200003D0FB6843F48063FB603B68DB78002BBA
:104A300003D0FB6843F40063FB603B681B79002BE9
:104A400003D0FB6843F40073FB603B685B79002B89
:104A500003D0FB6843F48073FB603B689B79002BB9
:104A600003D0FB6843F04003FB603B68DB79002B1D
:104A700003D0FB6843F08003FB603B681B7A9B001C
:104A8000FA681343FB603B685B7A1B01FA681343C7
:104A9000FB603B689B7AFA681343FB607B68FA68AB
:104AA0001A603B681B78002B08D07B689B6803F07A
:104AB0000103002B02D17B6801225A601437BD46E6
:104AC0005DF8047B704700BF80B483B000AF7860AE
:104AD00039607B681B6C03F00103002B00D006E0FB
:104AE00000BF7B685A6C3B681340002BF9D10C3730
:104AF000BD465DF8047B704780B586B000AFF860B6
:104B0000B9607A60BB68002B12D1FA68164B9A42E2
:104B100002D1164B7B6107E0FA68154B9A4202D12D
:104B2000144B7B6100E01BE07869FDF7C1FEB860C3
:104B3000BB685A017B68B2FBF3F33B613B69203BE6
:104B40003B613B69DB003B613A6947F6F873134010
:104B50003B61F8680421FFF7B7FFFB683A69DA6048
:104B60001837BD4680BD00BF0040084070071400E4
:104B7000004408407017160080B483B000AF78601E
:104B80000B46FB70FB78002B08D000BF7B685B6C8A
:104B9000002BFBD17B6801221A6402E07B680022B3
:104BA0001A640C37BD465DF8047B704780B582B04F
:104BB00000AF786039607A681B4B9A4203D07A68FC
:104BC0001A4B9A4200D100BF78680221FFF77CFFA0
:104BD0007B680A225A6078680121FFF7CDFF7B6865
:104BE0001B6823F01C023B681B7B1A433B685B7B02
:104BF0001A433B689B7B1A437B681A603B685A6880
:104C00003B689B68786811461A46FFF775FF3B685A
:104C10001B781A467B685A6078680021FFF7ACFF62
:104C20000837BD4680BD00BF004008400044084032
:104C300080B485B000AF7860194B5B69DBB203F0DC
:104C40000F03DBB29B00FB73154B1B6903F0C00322
:104C50009B09DAB2FB7B1343FB737B68FA7B9A7088
:104C60000F4B1B69DBB203F03F03DAB27B685A706B
:104C70000B4B9B69DBB223F00F03FB73084BDB6923
:104C800003F0F0031B09DAB2FB7B1343FB737B6871
:104C9000FA7B1A701437BD465DF8047B704700BF7D
:104CA000D0FF0FE080B483B000AF0346FB71084B28
:104CB00097F907205209F97901F01F01012000FA44
:104CC00001F143F822100C37BD465DF8047B7047B4
:104CD00000E100E080B500AF00F018FE80BD00BF2D
:104CE00080B483B000AF7860064B7A6802F00F02A0
:104CF000A03253F8223018460C37BD465DF8047BCD
:104D0000704700BF00C0084080B483B000AF786037
:104D1000034B7A685A640C37BD465DF8047B7047D4
:104D200000C0084080B400AF034B1B6C1846BD4662
:104D30005DF8047B704700BF00C0084080B400AF3E
:104D400072B6084B1B68B3F1FF3F04D0054B1B68DC
:104D50005A1C044B1A60034B1B681846BD465DF88D
:104D6000047B70473801002080B483B000AF0C4B47
:104D70001B68002B0DD00A4B1B685A1E084B1A608B
:104D8000074B1B687B607B68002B00D162B67B6899
:104D900000E0002318460C37BD465DF8047B7047E1
:104DA0003801002080B584B000AF78602F4B00221E
:104DB0001A802F4B00221A700023FB7336E0FA7B17
:104DC0002C4B002123F81210FA7B2B4B4FF6FF716E
:104DD00023F81210FB7B9B007A6813441B6818466B
:104DE0004FF0000101F01CFD0346002B1BD1FA7BA4
:104DF000FB7B9B0079680B441968204B43F8221019
:104E0000FB7B012202FA03F39AB2184B1B889BB278
:104E100013439BB29AB2154B1A80154B1B78013382
:104E2000DAB2134B1A70FB7B0133FB73FB7B0F2B46
:104E3000C5D9FFF783FF00F02FF800F099F800F0D4
:104E400055F800F05FF80023FB7306E0FFF7F4FC71
:104E500000F0B0F8FB7B0133FB73FB7B632BF5D9D0
:104E6000FFF782FF1037BD4680BD00BFC0020020A3
:104E7000C202002080020020A0020020C402002004
:104E800080B400AF034B1B889BB21846BD465DF84B
:104E9000047B70477C02002080B500AFFFF71AFF4B
:104EA0000C480121FDF798FC0B480121FDF794FC0B
:104EB0000A480221FDF796FE09480121FDF78CFC06
:104EC00008480121FDF788FC07480121FDF78AFE0B
:104ED00080BD00BF00A2040000D204000200180040
:104EE000004302006006280003001A0080B500AFEE
:104EF00002480349FCF79CFE80BD00BF001400403F
:104F0000686B000080B582B000AF16480121FFF742
:104F1000FDF90023FB7111E0134B1B881A46FB7946
:104F200042FA03F303F00103002B04D0FB790F488E
:104F30001946FFF765FBFB790133FB71FB790F2BFA
:104F4000EAD900200521FFF795FA00200021FFF79C
:104F500027FB1120FFF7A6FEFFF76EFC0837BD46C2
:104F600080BD00BF7C6B0000C0020020BC6B000055
:104F700080B582B000AF08237B6012E00C4B1B8829
:104F80001A467B6842FA03F303F00103002B05D0B5
:104F90000220796800220023FEF7CCFC7B680133F5
:104FA0007B607B680B2BE9D90837BD4680BD00BF0D
:104FB000C0020020F0B585B000AF00BF624B1B6A95
:104FC00003F01003002BF9D15F4B5B6A03F4F0731D
:104FD0005B09BB605D4B1B781A46BB689A4205DCD7
:104FE0005A4B1B78BA68D31ABB6005E0574B1B7845
:104FF000BA68D31A1033BB600023FB6021E0544B26
:105000001B881A46FB6842FA03F303F00103002BE6
:1050100014D0504B1B781C46BB685A1CBA6018460B
:10502000FFF75EFE034698B24B49FA6813469B00B1
:1050300013445B002344024621F81320FB6801332C
:10504000FB60FB680F2BDADD424B1B780133DAB2D1
:10505000404B1A703F4B1B78092B02D93D4B002265
:105060001A700023FB6068E0394B1B881A46FB6806
:1050700042FA03F303F00103002B5BD0FA681346F6
:105080009B0013449B00344A134418460A2100F045
:105090006DF803461946314BFA6823F81210FA6886
:1050A00013469B0013449B002B4A134418460A21C5
:1050B00000F084F803461946294BFA6823F81210C9
:1050C000264BFA6833F81230FB80FB68DEB2FB88AF
:1050D000184600F043FE04460D46FB88184601F0D2
:1050E000B7F902461F4BF96853F8213010461946AC
:1050F00001F002FA0346184600F042FE02460B4653
:10510000104619464FF00002174B00F0B7FF024659
:105110000B462046294600F0D3FC02460B461046BB
:10512000194601F0BBF803469BB2304600211A46EF
:10513000FFF736FBFB680133FB60FB680F2B93DD49
:105140001437BD46F0BD00BF00C00840C2020020B9
:10515000C0020020040300203C0100208002002047
:10516000A0020020C40200200000594080B485B095
:1051700000AF78600B467B8000237B810023FB60BF
:1051800011E0FB685B007A6813441B889BB27A8944
:105190009A4205D2FB685B007A6813441B887B81C6
:1051A000FB680133FB607A88FB689A42E9DC7B8903
:1051B00018461437BD465DF8047B704780B485B04F
:1051C00000AF78600B467B804FF6FF737B81002336
:1051D000FB6011E0FB685B007A6813441B889BB29C
:1051E0007A899A4205D9FB685B007A6813441B8868
:1051F0007B81FB680133FB607A88FB689A42E9DCBB
:105200007B8918461437BD465DF8047B704700BFA4
:1052100080B586B000AFFFF785FD38613869FFF7CC
:1052200073FD0023FB750BE0FB7D3A6922FA03F363
:1052300003F00103002B00D005E0FB7D0133FB757B
:10524000FB7D0F2BF0D9514B9B69FB604F4BFA7DD7
:10525000012101FA02F29A6101237B750023BB75DB
:1052600019E0FFF7E9FA00BF484B1B6A03F010038F
:10527000002BF9D1454BDB69BB60FB7D012202FAB3
:1052800003F31A46BB681340002B01D100237B7542
:10529000BB7D0133BB75BB7D092BE2D93B4BFA6863
:1052A0009A617B7D002B6DD0384AFB7D1B01134436
:1052B00003F532731B6803F48033002B32D0FB7D7F
:1052C000012202FA03F39BB2DB439AB2304B1B88F4
:1052D0009BB29BB213409BB29AB22D4B1A802B49C2
:1052E000FB7D2A48FA7D1201024402F532721268EF
:1052F00022F480321B010B4403F532731A60234AF7
:10530000FB7D1B01134403F532731B68FB80FB8894
:10531000043BFB80FA7DFB88104600211A46FFF70C
:105320003FFA2FE0FB7D012202FA03F39AB2184BF9
:105330001B889BB29BB213439BB29AB2144B1A8048
:105340001249FB7D1148FA7D1201024402F53272C6
:10535000126842F480321B010B4403F532731A6069
:105360000A4AFB7D1B01134403F532731B68FB8063
:10537000FB880433FB80FA7DFB88104600211A4627
:10538000FFF70EFA1837BD4680BD00BF00C00840C9
:105390007C02002080B483B000AF0346FB71FB7930
:1053A000002B06D0084B084A126842F001021A602E
:1053B00005E0054B044A126822F001021A600C371E
:1053C000BD465DF8047B704700A0084080B483B000
:1053D00000AF0346FB71FB79002B03D0054B012284
:1053E0001A6602E0034B00221A660C37BD465DF8D0
:1053F000047B704700A0084080B483B000AF7860A1
:1054000000BF054B5A6E7B681340002BF9D10C3757
:10541000BD465DF8047B704700A0084080B483B0AF
:1054200000AF7860054B054A916A7A68D2430A401A
:105430009A620C37BD465DF8047B704700A00840B7
:1054400080B500AF002028490022FEF7B9FD0120F9
:1054500025490022FEF7B4FD022023490022FEF771
:10546000AFFD032020490022FEF7AAFD04201E49BB
:105470000022FEF7A5FD05201B490022FEF7A0FD36
:10548000062019490022FEF79BFD0720164900223D
:10549000FEF796FD0020FF210022FEF74FFE0120BF
:1054A000FF210022FEF74AFE0220FF210022FEF724
:1054B00045FE0320FF210022FEF740FE0420FF21CD
:1054C0000022FEF73BFE0520FF210022FEF736FEFC
:1054D0000620FF210022FEF731FE0720FF210022D7
:1054E000FEF72CFE80BD00BF00F00FF080B500AFCE
:1054F000072026490022FEF763FD062024490022EA
:10550000FEF75EFD052022490022FEF759FD04202A
:105510001F490022FEF754FD03201D490022FEF71B
:105520004FFD02201A490022FEF74AFD01201849CA
:105530000022FEF745FD00204FF020410022FEF73B
:105540003FFD072007210022FEF7F8FD0620072176
:105550000022FEF7F3FD052007210022FEF7EEFDF5
:10556000042007210022FEF7E9FD03200721002285
:10557000FEF7E4FD022007210022FEF7DFFD0120F7
:1055800007210022FEF7DAFD00BF80BD00E00F50CA
:1055900000E00FF080B500AF0020FFF7FBFE012018
:1055A000FFF72AFF03480021FDF716F9024B0022FE
:1055B000DA6780BD0036260000800C4080B582B0DE
:1055C00000AF0346FB7125480121FDF705F924488A
:1055D0000221FDF707FB23484021FCF7E5FF0120EE
:1055E000FDF75CFC20480121FDF7F6F84FF0FF3095
:1055F000FFF714FF1D48FEF777FB08200121FEF797
:10560000CDFB10200121FEF7C9FB80200121FEF710
:10561000C5FB4FF480700121FEF7C0FB4FF4007012
:105620000121FEF7BBFBFB79002B0DD04FF440208E
:10563000FEF742FE4FF48030FEF78EFB0C4B0C4A17
:10564000D26F42F00802DA67FFF7FAFE4FF0FF3040
:10565000FFF7D2FE0837BD4680BD00BF0043020001
:10566000020018006000240000362600B86E00001A
:1056700000800C4080B58AB000AF78607A6842F252
:105680000E739A4202DD42F20F737B607B6813F562
:105690007A7F01DC3C4B7B607B68002B06DA786804
:1056A00001F036F978600123BB6101E00023BB61A2
:1056B0004FF0FF30FFF7A0FE0120FFF787FE00F05C
:1056C0006BF80123FB6100233B6254E07A68FB69BD
:1056D00092FBF3F12D4B83FB01239A10CB17D21AC7
:1056E00013469B0013445B00CA1A1346FB82BB6936
:1056F000012B04D13B6A032B01D11023FB82FA8AD0
:10570000234B33F81230BB8200237B6227E0214910
:105710003A6A1346DB009B1A5B00CA187B6A134483
:10572000C033DB7A3B611B493A6A1346DB009B1AA4
:105730005B00CA187B6A1344C0331B79FB60BA8ACA
:105740007B6A42FA03F303F00103002B04D0F868EC
:1057500039690122FEF742FB7B6A01337B627B6A77
:10576000062BD4DDFA6913469B0013445B00FB61F2
:105770003B6A01333B623B6A032BA7DD0020FFF746
:1057800025FE2837BD4680BD19FCFFFF67666666AB
:10579000946E0000DC6B000080B500AF0120782122
:1057A0000022FEF7CBFC022078210022FEF7C6FC87
:1057B000032078210022FEF7C1FC0420782100227A
:1057C000FEF7BCFC052078210022FEF7B7FC06207E
:1057D00078210022FEF7B2FC072078210022FEF794
:1057E000ADFC00BF80BD00BF80B58AB000AF78605F
:1057F000786801F03FF90346BB6100233B624FF03C
:10580000FF30FFF7F9FD0120FFF7E0FDFFF76EFE27
:1058100000233B6246E03A6ABB699A4203DA7B683E
:105820001B787B6201E020237B627B6A203B7B62EA
:10583000214B7A6A33F81230FB820023FB6128E0A7
:105840001E493A6A1346DB009B1A9B00CA18FB6983
:10585000134408339B793B6118493A6A1346DB00CD
:105860009B1A9B00FA6913440B441B78FB60FA8A6D
:10587000FB6942FA03F303F00103002B06D0FA6838
:105880003B69104619460122FEF7A8FAFB6901336D
:10589000FB61FB690D2BD3DD7B6801337B603B6AC9
:1058A00001333B623B6A062BB5DD0020FFF78EFD1E
:1058B0002837BD4680BD00BFDC6D0000DC6B0000FA
:1058C000064880470649074A074B9A42BEBF51F82F
:1058D000040B42F8040BF8E7FAF72CFC6D5A0000B1
:1058E000E06E00000000002078000020FEE700BF0E
:1058F00080B400AF044BDB6C1B0EDBB21846BD4618
:105900005DF8047B704700BFB081E00F80B582B0C6
:1059100000AF00F01FF87860074B5B6803F00F03DF
:105920007A6822FA03F37B60044B7A681A607B681A
:1059300018460837BD4680BD00800C40800B002013
:1059400080B400AF024B1846BD465DF8047B70473B
:10595000006CDC0280B582B000AF334BDB6A03F42D
:105960007053B3F5805F0AD0B3F5005F03D0B3F591
:10597000006F08D00BE02D4B1B687B6047E04FF4B5
:1059800000437B6043E02A4B1B687B603FE0264B73
:10599000DB6803F4E063B3F5007F1BD0B3F5007F51
:1059A00005D8002B24D0B3F5807F16D02BE0B3F5BB
:1059B000806F09D0B3F5A06F03D0B3F5407F06D058
:1059C00021E01C4B7B6021E01B4B7B601EE01B4BEE
:1059D0007B601BE01A4B7B6018E0FFF789FF0346F2
:1059E000122B02D9174B7B6010E0174B7B600DE048
:1059F000FFF77EFF0346122B02D9144B7B6005E0B4
:105A0000134B7B6002E000237B6000BF00BF064BAE
:105A10001B6803F4E0339B0B01337A68B2FBF3F3AA
:105A200018460837BD4680BD00800C4004000020A9
:105A300000000020003FAB01406F4001809FD50077
:105A4000C0D8A70040B56400C0CF6A00804F1200E4
:105A500040420F0080B400AF034B1B681846BD46A0
:105A60005DF8047B704700BF0000002080B400AFE9
:105A7000BD465DF8047B704780B400AF4FF400432F
:105A80001846BD465DF8047B704700BF80B400AF88
:105A90004FF47A731846BD465DF8047B704700BF2B
:105AA00080B400AF034B1B681846BD465DF8047B0D
:105AB000704700BF0400002081F0004102E000BFF9
:105AC00083F0004330B54FEA41044FEA430594EABE
:105AD000050F08BF90EA020F1FBF54EA000C55EAF9
